{
  "contractName": "ZombieFactory",
  "abi": [
    {
      "anonymous": false,
      "inputs": [
        {
          "indexed": false,
          "internalType": "uint256",
          "name": "zombieId",
          "type": "uint256"
        },
        {
          "indexed": false,
          "internalType": "string",
          "name": "name",
          "type": "string"
        },
        {
          "indexed": false,
          "internalType": "uint256",
          "name": "dna",
          "type": "uint256"
        }
      ],
      "name": "NewZombie",
      "type": "event"
    },
    {
      "anonymous": false,
      "inputs": [
        {
          "indexed": true,
          "internalType": "address",
          "name": "previousOwner",
          "type": "address"
        },
        {
          "indexed": true,
          "internalType": "address",
          "name": "newOwner",
          "type": "address"
        }
      ],
      "name": "OwnershipTransferred",
      "type": "event"
    },
    {
      "inputs": [],
      "name": "isOwner",
      "outputs": [
        {
          "internalType": "bool",
          "name": "",
          "type": "bool"
        }
      ],
      "stateMutability": "view",
      "type": "function"
    },
    {
      "inputs": [],
      "name": "owner",
      "outputs": [
        {
          "internalType": "address",
          "name": "",
          "type": "address"
        }
      ],
      "stateMutability": "view",
      "type": "function"
    },
    {
      "inputs": [],
      "name": "renounceOwnership",
      "outputs": [],
      "stateMutability": "nonpayable",
      "type": "function"
    },
    {
      "inputs": [
        {
          "internalType": "address",
          "name": "newOwner",
          "type": "address"
        }
      ],
      "name": "transferOwnership",
      "outputs": [],
      "stateMutability": "nonpayable",
      "type": "function"
    },
    {
      "inputs": [
        {
          "internalType": "uint256",
          "name": "",
          "type": "uint256"
        }
      ],
      "name": "zombieToOwner",
      "outputs": [
        {
          "internalType": "address",
          "name": "",
          "type": "address"
        }
      ],
      "stateMutability": "view",
      "type": "function"
    },
    {
      "inputs": [
        {
          "internalType": "uint256",
          "name": "",
          "type": "uint256"
        }
      ],
      "name": "zombies",
      "outputs": [
        {
          "internalType": "string",
          "name": "name",
          "type": "string"
        },
        {
          "internalType": "uint256",
          "name": "dna",
          "type": "uint256"
        },
        {
          "internalType": "uint32",
          "name": "level",
          "type": "uint32"
        },
        {
          "internalType": "uint32",
          "name": "readyTime",
          "type": "uint32"
        },
        {
          "internalType": "uint16",
          "name": "winCount",
          "type": "uint16"
        },
        {
          "internalType": "uint16",
          "name": "lossCount",
          "type": "uint16"
        }
      ],
      "stateMutability": "view",
      "type": "function"
    },
    {
      "inputs": [
        {
          "internalType": "string",
          "name": "_name",
          "type": "string"
        }
      ],
      "name": "createRandomZombie",
      "outputs": [],
      "stateMutability": "nonpayable",
      "type": "function"
    }
  ],
  "bytecode": "0x60806040526010600155600154600a6200001a919062000275565b6002556201518060035534801562000030575f80fd5b50335f806101000a81548173ffffffffffffffffffffffffffffffffffffffff021916908373ffffffffffffffffffffffffffffffffffffffff1602179055505f8054906101000a900473ffffffffffffffffffffffffffffffffffffffff1673ffffffffffffffffffffffffffffffffffffffff165f73ffffffffffffffffffffffffffffffffffffffff167f8be0079c531659141344cd1fd0a4f28419497f9722a3daafe3b4186f6b6457e060405160405180910390a3620002c5565b7f4e487b71000000000000000000000000000000000000000000000000000000005f52601160045260245ffd5b5f8160011c9050919050565b5f808291508390505b60018511156200017957808604811115620001515762000150620000ef565b5b6001851615620001615780820291505b808102905062000171856200011c565b945062000131565b94509492505050565b5f8262000193576001905062000265565b81620001a2575f905062000265565b8160018114620001bb5760028114620001c657620001fc565b600191505062000265565b60ff841115620001db57620001da620000ef565b5b8360020a915084821115620001f557620001f4620000ef565b5b5062000265565b5060208310610133831016604e8410600b8410161715620002365782820a90508381111562000230576200022f620000ef565b5b62000265565b62000245848484600162000128565b925090508184048111156200025f576200025e620000ef565b5b81810290505b9392505050565b5f819050919050565b5f62000281826200026c565b91506200028e836200026c565b9250620002bd7fffffffffffffffffffffffffffffffffffffffffffffffffffffffffffffffff848462000182565b905092915050565b6110cf80620002d35f395ff3fe608060405234801561000f575f80fd5b506004361061007b575f3560e01c80637bff0a01116100595780637bff0a01146100ee5780638da5cb5b1461010a5780638f32d59b14610128578063f2fde38b146101465761007b565b80632052465e1461007f578063528b7b8f146100b4578063715018a6146100e4575b5f80fd5b61009960048036038101906100949190610870565b610162565b6040516100ab9695949392919061096e565b60405180910390f35b6100ce60048036038101906100c99190610870565b61026a565b6040516100db9190610a13565b60405180910390f35b6100ec61029a565b005b61010860048036038101906101039190610b58565b610364565b005b6101126103e0565b60405161011f9190610a13565b60405180910390f35b610130610407565b60405161013d9190610bb9565b60405180910390f35b610160600480360381019061015b9190610bfc565b61045c565b005b60048181548110610171575f80fd5b905f5260205f2090600302015f91509050805f01805461019090610c54565b80601f01602080910402602001604051908101604052809291908181526020018280546101bc90610c54565b80156102075780601f106101de57610100808354040283529160200191610207565b820191905f5260205f20905b8154815290600101906020018083116101ea57829003601f168201915b505050505090806001015490806002015f9054906101000a900463ffffffff16908060020160049054906101000a900463ffffffff16908060020160089054906101000a900461ffff169080600201600a9054906101000a900461ffff16905086565b6005602052805f5260405f205f915054906101000a900473ffffffffffffffffffffffffffffffffffffffff1681565b6102a2610407565b6102aa575f80fd5b5f73ffffffffffffffffffffffffffffffffffffffff165f8054906101000a900473ffffffffffffffffffffffffffffffffffffffff1673ffffffffffffffffffffffffffffffffffffffff167f8be0079c531659141344cd1fd0a4f28419497f9722a3daafe3b4186f6b6457e060405160405180910390a35f805f6101000a81548173ffffffffffffffffffffffffffffffffffffffff021916908373ffffffffffffffffffffffffffffffffffffffff160217905550565b5f60065f3373ffffffffffffffffffffffffffffffffffffffff1673ffffffffffffffffffffffffffffffffffffffff1681526020019081526020015f2054146103ac575f80fd5b5f6103b682610478565b90506064816103c59190610cb1565b816103d09190610d0e565b90506103dc82826104bb565b5050565b5f805f9054906101000a900473ffffffffffffffffffffffffffffffffffffffff16905090565b5f805f9054906101000a900473ffffffffffffffffffffffffffffffffffffffff1673ffffffffffffffffffffffffffffffffffffffff163373ffffffffffffffffffffffffffffffffffffffff1614905090565b610464610407565b61046c575f80fd5b6104758161070f565b50565b5f808260405160200161048b9190610d7b565b604051602081830303815290604052805190602001205f1c9050600254816104b39190610cb1565b915050919050565b5f600480549050905060046040518060c00160405280858152602001848152602001600163ffffffff168152602001600354426104f89190610d91565b63ffffffff1681526020015f61ffff1681526020015f61ffff16815250908060018154018082558091505060019003905f5260205f2090600302015f909190919091505f820151815f01908161054e9190610f61565b50602082015181600101556040820151816002015f6101000a81548163ffffffff021916908363ffffffff16021790555060608201518160020160046101000a81548163ffffffff021916908363ffffffff16021790555060808201518160020160086101000a81548161ffff021916908361ffff16021790555060a082015181600201600a6101000a81548161ffff021916908361ffff16021790555050503360055f8381526020019081526020015f205f6101000a81548173ffffffffffffffffffffffffffffffffffffffff021916908373ffffffffffffffffffffffffffffffffffffffff16021790555061068e600160065f3373ffffffffffffffffffffffffffffffffffffffff1673ffffffffffffffffffffffffffffffffffffffff1681526020019081526020015f205461080190919063ffffffff16565b60065f3373ffffffffffffffffffffffffffffffffffffffff1673ffffffffffffffffffffffffffffffffffffffff1681526020019081526020015f20819055507f88f026aacbbecc90c18411df4b1185fd8d9be2470f1962f192bf84a27d0704b781848460405161070293929190611030565b60405180910390a1505050565b5f73ffffffffffffffffffffffffffffffffffffffff168173ffffffffffffffffffffffffffffffffffffffff1603610746575f80fd5b8073ffffffffffffffffffffffffffffffffffffffff165f8054906101000a900473ffffffffffffffffffffffffffffffffffffffff1673ffffffffffffffffffffffffffffffffffffffff167f8be0079c531659141344cd1fd0a4f28419497f9722a3daafe3b4186f6b6457e060405160405180910390a3805f806101000a81548173ffffffffffffffffffffffffffffffffffffffff021916908373ffffffffffffffffffffffffffffffffffffffff16021790555050565b5f80828461080f9190610d91565b9050838110156108225761082161106c565b5b8091505092915050565b5f604051905090565b5f80fd5b5f80fd5b5f819050919050565b61084f8161083d565b8114610859575f80fd5b50565b5f8135905061086a81610846565b92915050565b5f6020828403121561088557610884610835565b5b5f6108928482850161085c565b91505092915050565b5f81519050919050565b5f82825260208201905092915050565b5f5b838110156108d25780820151818401526020810190506108b7565b5f8484015250505050565b5f601f19601f8301169050919050565b5f6108f78261089b565b61090181856108a5565b93506109118185602086016108b5565b61091a816108dd565b840191505092915050565b61092e8161083d565b82525050565b5f63ffffffff82169050919050565b61094c81610934565b82525050565b5f61ffff82169050919050565b61096881610952565b82525050565b5f60c0820190508181035f83015261098681896108ed565b90506109956020830188610925565b6109a26040830187610943565b6109af6060830186610943565b6109bc608083018561095f565b6109c960a083018461095f565b979650505050505050565b5f73ffffffffffffffffffffffffffffffffffffffff82169050919050565b5f6109fd826109d4565b9050919050565b610a0d816109f3565b82525050565b5f602082019050610a265f830184610a04565b92915050565b5f80fd5b5f80fd5b7f4e487b71000000000000000000000000000000000000000000000000000000005f52604160045260245ffd5b610a6a826108dd565b810181811067ffffffffffffffff82111715610a8957610a88610a34565b5b80604052505050565b5f610a9b61082c565b9050610aa78282610a61565b919050565b5f67ffffffffffffffff821115610ac657610ac5610a34565b5b610acf826108dd565b9050602081019050919050565b828183375f83830152505050565b5f610afc610af784610aac565b610a92565b905082815260208101848484011115610b1857610b17610a30565b5b610b23848285610adc565b509392505050565b5f82601f830112610b3f57610b3e610a2c565b5b8135610b4f848260208601610aea565b91505092915050565b5f60208284031215610b6d57610b6c610835565b5b5f82013567ffffffffffffffff811115610b8a57610b89610839565b5b610b9684828501610b2b565b91505092915050565b5f8115159050919050565b610bb381610b9f565b82525050565b5f602082019050610bcc5f830184610baa565b92915050565b610bdb816109f3565b8114610be5575f80fd5b50565b5f81359050610bf681610bd2565b92915050565b5f60208284031215610c1157610c10610835565b5b5f610c1e84828501610be8565b91505092915050565b7f4e487b71000000000000000000000000000000000000000000000000000000005f52602260045260245ffd5b5f6002820490506001821680610c6b57607f821691505b602082108103610c7e57610c7d610c27565b5b50919050565b7f4e487b71000000000000000000000000000000000000000000000000000000005f52601260045260245ffd5b5f610cbb8261083d565b9150610cc68361083d565b925082610cd657610cd5610c84565b5b828206905092915050565b7f4e487b71000000000000000000000000000000000000000000000000000000005f52601160045260245ffd5b5f610d188261083d565b9150610d238361083d565b9250828203905081811115610d3b57610d3a610ce1565b5b92915050565b5f81905092915050565b5f610d558261089b565b610d5f8185610d41565b9350610d6f8185602086016108b5565b80840191505092915050565b5f610d868284610d4b565b915081905092915050565b5f610d9b8261083d565b9150610da68361083d565b9250828201905080821115610dbe57610dbd610ce1565b5b92915050565b5f819050815f5260205f209050919050565b5f6020601f8301049050919050565b5f82821b905092915050565b5f60088302610e207fffffffffffffffffffffffffffffffffffffffffffffffffffffffffffffffff82610de5565b610e2a8683610de5565b95508019841693508086168417925050509392505050565b5f819050919050565b5f610e65610e60610e5b8461083d565b610e42565b61083d565b9050919050565b5f819050919050565b610e7e83610e4b565b610e92610e8a82610e6c565b848454610df1565b825550505050565b5f90565b610ea6610e9a565b610eb1818484610e75565b505050565b5b81811015610ed457610ec95f82610e9e565b600181019050610eb7565b5050565b601f821115610f1957610eea81610dc4565b610ef384610dd6565b81016020851015610f02578190505b610f16610f0e85610dd6565b830182610eb6565b50505b505050565b5f82821c905092915050565b5f610f395f1984600802610f1e565b1980831691505092915050565b5f610f518383610f2a565b9150826002028217905092915050565b610f6a8261089b565b67ffffffffffffffff811115610f8357610f82610a34565b5b610f8d8254610c54565b610f98828285610ed8565b5f60209050601f831160018114610fc9575f8415610fb7578287015190505b610fc18582610f46565b865550611028565b601f198416610fd786610dc4565b5f5b82811015610ffe57848901518255600182019150602085019450602081019050610fd9565b8683101561101b5784890151611017601f891682610f2a565b8355505b6001600288020188555050505b505050505050565b5f6060820190506110435f830186610925565b818103602083015261105581856108ed565b90506110646040830184610925565b949350505050565b7f4e487b71000000000000000000000000000000000000000000000000000000005f52600160045260245ffdfea2646970667358221220d0bd1e117f54997470eb6be3afeaca0b1ccb428b6aafef68b266b1b773709d0164736f6c63430008150033",
  "immutableReferences": {},
  "source": "pragma solidity ^0.8.0;\nimport \"./ownable.sol\";\nimport \"./safemath.sol\";\n\ncontract ZombieFactory is Ownable {\n\n  using SafeMath for uint256;\n  using SafeMath32 for uint32;\n  using SafeMath16 for uint16;\n\n  event NewZombie(uint zombieId, string name, uint dna);\n\n  uint dnaDigits = 16;\n  uint dnaModulus = 10 ** dnaDigits;\n  uint cooldownTime = 1 days;\n\n  struct Zombie {\n    string name;\n    uint dna;\n    uint32 level;\n    uint32 readyTime;\n    uint16 winCount;\n    uint16 lossCount;\n  }\n\n  Zombie[] public zombies;\n\n  mapping (uint => address) public zombieToOwner;\n  mapping (address => uint) ownerZombieCount;\n\n  function _createZombie(string memory _name, uint _dna) internal {\n    uint id = zombies.length; // L'index actuel avant le push\n    zombies.push(Zombie(_name, _dna, 1, uint32(block.timestamp + cooldownTime), 0, 0));\n    zombieToOwner[id] = msg.sender;\n    ownerZombieCount[msg.sender] = ownerZombieCount[msg.sender].add(1);\n    emit NewZombie(id, _name, _dna);\n  }\n\n  function _generateRandomDna(string memory _str) private view returns (uint) {\n    uint rand = uint(keccak256(abi.encodePacked(_str)));\n    return rand % dnaModulus;\n  }\n\n  function createRandomZombie(string memory _name) public {\n    require(ownerZombieCount[msg.sender] == 0);\n    uint randDna = _generateRandomDna(_name);\n    randDna = randDna - randDna % 100;\n    _createZombie(_name, randDna);\n  }\n\n}\n",
  "sourcePath": "/Users/spaceranger/CryptoZombies2/contracts/zombiefactory.sol",
  "compiler": {
    "name": "solc",
    "version": "0.8.21+commit.d9974bed.Emscripten.clang"
  },
  "schemaVersion": "3.4.16",
  "updatedAt": "2025-11-11T22:28:41.959Z",
  "devdoc": {
    "kind": "dev",
    "methods": {
      "isOwner()": {
        "returns": {
          "_0": "true if `msg.sender` is the owner of the contract."
        }
      },
      "owner()": {
        "returns": {
          "_0": "the address of the owner."
        }
      },
      "renounceOwnership()": {
        "details": "Allows the current owner to relinquish control of the contract."
      },
      "transferOwnership(address)": {
        "details": "Allows the current owner to transfer control of the contract to a newOwner.",
        "params": {
          "newOwner": "The address to transfer ownership to."
        }
      }
    },
    "version": 1
  },
  "userdoc": {
    "kind": "user",
    "methods": {
      "renounceOwnership()": {
        "notice": "Renouncing to ownership will leave the contract without an owner. It will not be possible to call the functions with the `onlyOwner` modifier anymore."
      }
    },
    "version": 1
  }
}